:400000000080002011000000D9000000D900000008B5044B1A6803F53F5302331A6000F063F800BFFA46004010B5054C237833B9044B13B10448AFF300800123237010BD6A
:400040005085FF1F00000000A4090000084B10B51BB108480849AFF300800848036803B910BD074B002BFBD0BDE81040184700BF00000000A40900005485FF1F0881FF1F4F
:400080000000000008B562B600F0F4FA00F008F8642041F2883100F00BF800F005F8FEE708B500F071FA08BD08B500F005FA08BD38B504460D46002000F094FA002000F0E2
:4000C0009DFA204600F00CFA204600F00FFA284600F068FA38BD00BF08B500F0F9FA03680C2B00D1FEE7FEE708B5104E104D16E029686B68AC68002204E051F8040B43F8DE
:40010000040B0432A242F8D1E868002203E0002143F8041B04328242F9D11035013E002EE6D100F0DBFAFFF7ADFFFEE701000000140A000008B5124A124B1A60124A13689E
:4001400043F40073136000230AE0032B03D80F4A52F8231000E00E490E4A42F8231001332F2BF2D90C4B1A780C4B1A70094A0C4B1A6000F0F7F800220A4B1A6008BD00BFDF
:400180000004FA050CED00E014ED00E000000000D90000000080FF1FBC7600400481FF1F08ED00E00081FF1FFEE700BFF0B40022174611E050F82760F3B226F0FF0608E053
:4001C00001EB420511F812406D78A5550132013BDBB2002BF4D10137242FEBD9F0BC704708B50A46002100F017FB08BD38B50122304B1A801823304A13701925023215809B
:40020000023213701D21023211800232137077210232118002321370EF21023211800232137040F2AF4102321180023213700222224B1A7008224FF040231A70032103F582
:40024000007319701E4B1B78DBB21E490B701E4B1A8041F25122023B1A8000240CE01B4B1B7803F0010343EA440404F003044FF4F07000F01DFA013D0DB1032CEFD115B9C4
:400280000320FFF791FF124B4FF480721A8007221A7000220F490A704820023108701A700222033B1A700C4A137843F03F03137038BD00BF80400040824000400043004027
:4002C00008010049A146004022420040254200400440004006400040A2430040F8B5184B1B78DBB2174E3478E4B2174F3D78EDB203F00701154A11701B090132137044F091
:400300000303337045F003033B708022104B1A704023104A137002321370082302F21D2213702021033211702D3213700A2000F04FF93D7034704422074B1A70F8BD00BF8D
:40034000CF010049F8460040F94600406E5800402D510040095900407658004008B500F0E5F908BD38B572B63A4A137843F00403137000240CE0384963001A1952000A44FB
:4003800023445B00C8589188FFF72AFF0134E4B2072CF0D900240BE02F49A3001A1952000A44106B516B0622FFF7D8FF0134E4B2002CF1D04FF090402849FFF7F7FE284A9E
:4003C000137843F0020313701032137843F002031370244C237843F040032370A2F58632513A137843F0100313701F481F490822FFF7B4FF1E481F490A22FFF7AFFF1E4847
:400400001E490822FFF7AAFF1D481E490822FFF7A5FF1D481D490A22FFF7A0FF1C481D490822FFF79BFF1C4A137843F0080313701A4D61232B70FFF7D9FE81232B70012285
:40044000174B1A70FFF74AFF164821460E22FFF785FF38BDE8460040A80900009400004803500140A0430040025100407C080048C051004084080048F25100409008004854
:40048000125100409808004820510040A008004832510040AC080048224300400048004004000840B0430040024A137843F080031370704777650040024A137803F07F0376
:4004C0001370704777650040014B1870704700BF07650040014B1870704700BF47650040014B1870704700BF27650040014B1870704700BF37650040014B1870704700BFF4
:4005000087650040014B1878704700BF67650040014B1878704700BF5765004008B501E0FFF7F6FFFFF7EEFF10F0100FF8D108BD10B5134A137803F0C00343F009031370A5
:40054000104C237843F001032370FF20FFF7BCFFFF20FFF7BFFF2820FFF7C2FF2820FFF7C5FF0020FFF7C8FF00F0AAF8237843F01003237000F0A8F8FFF7D0FF10BD00BF52
:40058000776500409765004008B5054B1B7823B9FFF7CEFF0122024B1A70FFF785FF08BD6C85FF1F10B5044605E0084B186800F07FF8A4F50044B4F5004FF6D8034B58687D
:4005C00000FB04F000F074F810BD00BF0C81FF1F08B5034B1B7A03FB00F000F069F808BD0C81FF1F044A137803F07F03C001C0B203431370704700BF30510040044A1378D0
:4006000003F0FE0300F0010018431070704700BFF05100407222084B1A702022A3F580731A700622A1331A70472210331A700022B03B1A70704700BF8865004010B500F090
:400640003FF804460A4A137843F020031370A2F58072137843F0100313700132137843F01003137000F014F8204600F02DF810BD9865004008B5054B1B7823B9FFF7CAFF21
:400680000122024B1A70FFF7D9FF08BD6D85FF1F054A137843F0020313701032137843F002031370704700BFA2430040000000000230800803D000BF01380046FCD1704796
:4006C000EFF3108072B6704780F31088704700BF014B1868704700BF4885FF1F70B50F4E0F4D761BB61018BF002405D0013455F8043B9847A642F9D10A4E0B4D00F076F995
:40070000761BB61018BF002406D0013455F8043B9847A642F9D170BD70BD00BFF8090000F8090000040A0000F8090000844641EA000313F0030349D1403A23D30B680360B4
:400740004B6843608B688360CB68C3600B6903614B6943618B698361CB69C3610B6A03624B6A43628B6A8362CB6AC3620B6B03634B6B43638B6B8363CB6BC36340304031DE
:40078000403ADBD230320BD30B6803604B6843608B688360CB68C36010301031103AF3D20C3205D351F8043B40F8043B043AF9D2043208D0D2071CBF11F8013B00F8013B91
:4007C00001D30B8803806046704700BF082A13D38B07B1D010F00303AED0C3F10403D21ADB071CBF11F8013B00F8013BA4D331F8023B20F8023B9FE7043AD9D3013A11F881
:40080000013B00F8013BF9D20B7803704B7843708B7883706046704770B4840746D0541E002A41D0CDB2034602E0621EE4B3144603F8015B9A07F8D1032C2ED9CDB245EA8C
:4008400005250F2C45EA054519D9264603F11002103E0F2E42F8105C42F80C5C42F8085C42F8045C02F11002F2D8A4F1100222F00F0204F00F041032032C13440DD91E4679
:400880002246043A032A46F8045BFAD8221F22F003020432134404F003042CB1C9B21C4403F8011BA342FBD170BC704714460346C2E700BF024B13B1024800F005B87047E9
:4008C00000000000D5080000014600200246034600F016B838B5084B084DED1AAC1018BFED1805D0013C55F8043D9847002CF9D1BDE8384000F086B8100A0000140A000039
:400900002DE9F047254C064625688846D5F8484192469946C4B360681F2817DC411C76B104EB8003C3F888A0D4F88851012282401543022EC4F88851C3F808911ED0831C6B
:400940006160002044F82380BDE8F087144B03B34FF4C870AFF300800446D0B1D5F84831002784E888003846C5F848410121C4F88871C4F88C71002EE1D0D1E7D4F88C3149
:400980001A43C4F88C21DAE705F5A674C5F84841C1E74FF0FF30BDE8F08700BFE80900000000000000000000C84900401900004F00403000405100403000000001400010F9
:4009C00000140140000800400140000A004C01400002005001402000605200407408004806000000430000002081FF1FF8B500BFF8BC08BC9E467047B50800004D00000088
:400A000035010000F8B500BFF8BC08BC9E46704729000000280A00000881FF1F480400002000000000000000000000000000E02EC05D00001800000000366E0100000000AB
:400A4000000000000C84FF1F7484FF1FDC84FF1F000000000000000000000000000000000000000000000000000000000000000000000000E4090000000000000000000047
:400A80000000000000000000000000000000000000000000000000000000000000000000000000000000000000000000000000000000000000000000000000000000000036
:400AC0000000000000000000000000000000000000000000000000000000000000000000000000000000000001000000000000000E33CDAB34126DE6ECDE05000B000000C9
:400B000000000000000000000000000000000000000000000000000000000000000000000000000000000000000000000000000000000000000000000000000000000000B5
:400B40000000000000000000000000000000000000000000000000000000000000000000000000000000000000000000000000000000000000000000000000000000000075
:400B80000000000000000000000000000000000000000000000000000000000000000000000000000000000000000000000000000000000000000000000000000000000035
:400BC00000000000000000000000000000000000000000000000000000000000000000000000000000000000000000000000000000000000000000000000000000000000F5
:400C000000000000000000000000000000000000000000000000000000000000000000000000000000000000000000000000000000000000000000000000000000000000B4
:400C40000000000000000000000000000000000000000000000000000000000000000000000000000000000000000000000000000000000000000000000000000000000074
:400C80000000000000000000000000000000000000000000000000000000000000000000000000000000000000000000000000000000000000000000000000000000000034
:400CC00000000000000000000000000000000000000000000000000000000000000000000000000000000000000000000000000000000000000000000000000000000000F4
:400D000000000000000000000000000000000000000000000000000000000000000000000000000000000000000000000000000000000000000000000000000000000000B3
:400D40000000000000000000000000000000000000000000000000000000000000000000000000000000000000000000000000000000000000000000000000000000000073
:400D80000000000000000000000000000000000000000000000000000000000000000000000000000000000000000000000000000000000000000000000000000000000033
:400DC00000000000000000000000000000000000000000000000000000000000000000000000000000000000000000000000000000000000000000000000000000000000F3
:400E000000000000000000000000000000000000000000000000000000000000000000000000000000000000000000000000000000000000000000000000000000000000B2
:400E4000000000000000000000000000000000000000000000000000000000000000000000000000000000002081FF1F0000000000000000000000000000000000000000B3
:400E80000000000000000000000000000000000000000000000000000000000000000000000000000000000000000000000000000000000000000000000000000000000032
:400EC00000000000000000000000000000000000000000000000000000000000000000000000000000000000000000000000000000000000000000000000000000000000F2
:400F000000000000000000000000000000000000000000000000000000000000000000000000000000000000000000000000000000000000000000000000000000000000B1
:400F40000000000000000000000000000000000000000000000000000000000000000000000000000000000000000000000000000000000000000000000000000000000071
:020000040003F7
:0200000480007A
:40000000084F004003520040015B00400364004003650040010101400103014001050140010701404D08014041090140040A01400C0B0140680C0140360D0140010F01403F
:40004000131501405F1601403E1701405818014057190140591A0140541B014005400140034101400D42014009430140024401400345014006460140044701401748014014
:400080001E490140144C0140134D0140065001400251014001800A4E0D80164E1980221E25802E4E1830192079022F848838890F8C0F870F88728B0FE604E602E208E801F6
:4000C00004180A040C041623183F1C10201C222123012427261828082C3C2E022F013101321F36383A283F015418580459045B045C015D105F0182048503860487148A01E7
:400100008B088C038D138F0C90029403A120A513A604A704AB15AD0AAE04AF14B10FB204B320B403B710B820BB02BE14BF44C056C102C6BEC70CC81CC9FFCAFFCBFFCEF021
:40014000CF44D00CD401D804D904DA04DB04DC10DD11DF01E6C0EA40EB0200600101020803280510061208090A400B100C800D080E04138814101604174118041A201D0439
:400180001E041F50204022462502280129012A082B882C402F42386840084208450246804A0A50245384582059015A885E02640466808740902092429310944096209B80D7
:4001C0009E40A420A708AB80C0EFC2ECC4F5CA9FCE0ED004D20CD68FD830E602B880BE40D804DF011F408740902092429310944096209E40A420A708B510B720080D0A024A
:400200000B011302160D19031A081D011E0425013001310232023301340C36083AA03E013F014065420449FF4AFF4BFF4F01501854035604580459045A045B045C225D2291
:400240005F016040624064406540668068806A806C806E808303844089098A0C8BD08C118D108E068FAC900C92139411950C960E97719914A1DCA208A322A820AA03AB201F
:40028000AD10AF40B00FB11FB230B3E0B440B808BA02BB08BE10C065C204C5ECC720C823C9FFCAFFCBFFCD83CE03CF01D018D804D904DA04DC11DD02DF01E040E240E44042
:4002C000E540E680E880EA80EC80EE800050032005100A400B100D800E1410041240183819211A401DC01E141F1221092201231027A0280429012A402B082F10302031089F
:4003000035503602385039023E1042804302468049204A024B054C044E0252025FA5674087409620C047C2ECC40ACA4DCCB6CE2DD081D23CD6F0D8808210818088408D8005
:400340008F109C409D809F10A180A802B226B610B720E008E214E421E608E810EA4DEE8002020B01150216011A0123062B0131023202340135043701403041054501460289
:40038000480549FF4AFF4BFF4DA04F0450185280580459045A045B045C435D335F01604062C06440654066C068C06AC06CC06EC086088A048B028F04930195089604980218
:4003C0009A019C039F02A001A202A803AE08AF01B102B204B304B403B501B608B708BE44BF50C060C103C5D2C601C705C817C9FFCAFFCBFFCDA0CF04D018D280D407D80438
:40040000D904DA04DB04DC41DD44DF01E040E2C0E440E540E6C0E8C0EAC0ECC0EEC000300310064009400A040B100D080F08104A180819041A051D081F202080222023124F
:400440002580274829802C802F083080320637083B503F1040104508481049014B104F8850805308574059055A105B40734076408540870888408A018B028C0CC016C26711
:40048000C40BCAA8CC4BCE2CD042D214D60FE22AE402E624E844EC80EE040101050406020D030E021001111F13201402151C1723180219331B0C1D0221082401253F2801D8
:4004C0002B232D0C300232013310350F372C38023BA03F044064420145EC4602480749FF4AFF4BFF4F01501856025711580459045A045B045C115D155F0160406240644031
:400500006540668068806A806C806E80800186038D0491029D01B001B102B304B501B602BF15C002C604C9FFCA07CBFFCC40CD20CEF0CF05D008D804D904DA04DC04DD01B4
:40054000DF01E040E1A8E240E32000090504070108080A100B200C100E501520170418811D091F042102221023102408261027212C812F14328134103504361037413B4027
:400580003C403E0A4004468148104E084F05524056805F206E446F047480761C8102821084048510860488058A108D408F44900492029360984099049C149D109E569F01D4
:4005C000A280A490A508A601A702AB08AC20AF04B101B280B504B760C0ACC270C460CAF0CCF9CED8D094D220D620E011E208E480E610E840EC80EE04020F0310080509603A
:400600000A0A0B0E0C050D650E0A11201230134914101520162017431C031E0C202021802210230F28032A0C310F320F33E0363037103B0E3E405283580459045B045C55A5
:400640005D505F018084823086068C268EC8960698E099019CE0A206A406A806AC42AE31B0E0B206B401B618B701BE40BF40C063C102C204C401C7CEC830C9FFCAFFCBFF53
:40068000CC62CDA0CEF0CF41D00CD403D804D904DA04DB04DC01DD51DF01E640E702E910EA30EB10ED10EE10EF120010014003800440050407400A420B200D480E04100846
:4006C00013021418160217011A101B801C401D901F0820102201230226802A012B8030083201372038103942444845884C04550457025C805E105F0568086940724082487D
:40070000868089018A028B308D049008918092049305944098D899049B419D109E03A108A608A70AA901AA01AB08AF10B080B280B440C0BBC2EDC4FACA01CC23CE0DD0F00D
:40074000D220D6F0E008E280E421E640E830EA81EEB0338834208020CC70E6208708A788E6401B421C413E105B085F0867808748A780C6F0CE20D6C0D880E2106B089040E0
:4007800096109B08A342A780A801DA40E8801302C40803809B02C008038005029B02B780C00CEA02870299029B02A38024085A20644069046F0272028202862089048A1009
:4007C0009610ABC0B302B440C820D480D880DAC0DC20E210E620E820EE200902122016405B0266107220740282208440864089028F029A309C40A002AA10AF02B002B40434
:40080000B610C210C430D640D880DC80DE20E010E480E610EA900C101080132016401D1034027B107F408210848099029D10A910B380C201C40EC601CC01DE03EA011040AF
:400840007210831087408850921097809810A710AB20B102B240B402C408DC01E205E808EA01EE0100060C020E06103A1A1A1C32003F03C002800000430000000080800071
:40088000000004008300409093008300000000000033330002000000800B0B000000000004000126220000008000000000F0F00060000000000000000000000000000000C0
:4008C00000000000000000000000000000000000000000000000000000000000000000000000000000000000000000000000000000000000000000000000000000000000F8
:4009000000000000000000000000000000000000000000000000000000000000000000000000000000000000000000000000000000000000000000000000000000000000B7
:400940000000000000000000000000000000000000000000000000000000000000000000000000000000000000000000000000000000000000000000000000000000000077
:400980000000000000000000000000000000000000000000000000000000000000000000000000000000000000000000000000000000000000000000000000000000000037
:0200000490006A
:0400000000004005B7
:0200000490105A
:04000000BC90ACAF55
:0200000490303A
:020000006A870D
:0200000490402A
:4000000000000000000000000000000000000000000000000000000000000000000000000000000000000000000000000000000000000000000000000000000000000000C0
:400040000000000000000000000000000000000000000000000000000000000000000000000000000000000000000000000000000000000000000000000000000000000080
:400080000000000000000000000000000000000000000000000000000000000000000000000000000000000000000000000000000000000000000000000000000000000040
:4000C0000000000000000000000000000000000000000000000000000000000000000000000000000000000000000000000000000000000000000000000000000000000000
:0200000490501A
:0C00000000012E16106900012E1C7AF081
:00000001FF